{"abi":[{"type":"function","name":"ChangeNameAndNo","inputs":[{"name":"_newNo","type":"uint256","internalType":"uint256"},{"name":"_newName","type":"string","internalType":"string"}],"outputs":[],"stateMutability":"nonpayable"},{"type":"function","name":"getLayout","inputs":[],"outputs":[{"name":"l","type":"tuple","internalType":"struct LibAppStorage.Layout","components":[{"name":"currentNo","type":"uint256","internalType":"uint256"},{"name":"name","type":"string","internalType":"string"}]}],"stateMutability":"view"}],"bytecode":{"object":"0x608060405234801561001057600080fd5b506103e3806100206000396000f3fe608060405234801561001057600080fd5b50600436106100365760003560e01c80630fa909571461003b578063c812f68a14610059575b600080fd5b61004361006e565b6040516100509190610130565b60405180910390f35b61006c6100673660046101a8565b61011a565b005b604080518082019091526060602082015260005481526001805461009190610263565b80601f01602080910402602001604051908101604052809291908181526020018280546100bd90610263565b801561010a5780601f106100df5761010080835404028352916020019161010a565b820191906000526020600020905b8154815290600101906020018083116100ed57829003601f168201915b5050505050816020018190525090565b6000829055600161012b82826102ed565b505050565b60006020808352835160208401526020840151604080850152805180606086015260005b8181101561017057828101840151868201608001528301610154565b506000608082870101526080601f19601f830116860101935050505092915050565b634e487b7160e01b600052604160045260246000fd5b600080604083850312156101bb57600080fd5b82359150602083013567ffffffffffffffff808211156101da57600080fd5b818501915085601f8301126101ee57600080fd5b81358181111561020057610200610192565b604051601f8201601f19908116603f0116810190838211818310171561022857610228610192565b8160405282815288602084870101111561024157600080fd5b8260208601602083013760006020848301015280955050505050509250929050565b600181811c9082168061027757607f821691505b60208210810361029757634e487b7160e01b600052602260045260246000fd5b50919050565b601f82111561012b576000816000526020600020601f850160051c810160208610156102c65750805b601f850160051c820191505b818110156102e5578281556001016102d2565b505050505050565b815167ffffffffffffffff81111561030757610307610192565b61031b816103158454610263565b8461029d565b602080601f83116001811461035057600084156103385750858301515b600019600386901b1c1916600185901b1785556102e5565b600085815260208120601f198616915b8281101561037f57888601518255948401946001909101908401610360565b508582101561039d5787850151600019600388901b60f8161c191681555b5050505050600190811b0190555056fea2646970667358221220469ad5b696f3d950136968d9b9228cc3381e7baa8a3d1d2ba2552fbc15a1cf7864736f6c63430008170033","linkReferences":{}},"methodIdentifiers":{"ChangeNameAndNo(uint256,string)":"c812f68a","getLayout()":"0fa90957"},"id":3}