{"abi":[{"type":"function","name":"allowance","inputs":[{"name":"_owner","type":"address","internalType":"address"},{"name":"_spender","type":"address","internalType":"address"}],"outputs":[{"name":"remaining_","type":"uint256","internalType":"uint256"}],"stateMutability":"view"},{"type":"function","name":"approve","inputs":[{"name":"_spender","type":"address","internalType":"address"},{"name":"_value","type":"uint256","internalType":"uint256"}],"outputs":[{"name":"success","type":"bool","internalType":"bool"}],"stateMutability":"nonpayable"},{"type":"function","name":"balanceOf","inputs":[{"name":"_owner","type":"address","internalType":"address"}],"outputs":[{"name":"balance","type":"uint256","internalType":"uint256"}],"stateMutability":"view"},{"type":"function","name":"decimals","inputs":[],"outputs":[{"name":"","type":"uint8","internalType":"uint8"}],"stateMutability":"view"},{"type":"function","name":"mintTo","inputs":[{"name":"_user","type":"address","internalType":"address"}],"outputs":[],"stateMutability":"nonpayable"},{"type":"function","name":"name","inputs":[],"outputs":[{"name":"","type":"string","internalType":"string"}],"stateMutability":"view"},{"type":"function","name":"symbol","inputs":[],"outputs":[{"name":"","type":"string","internalType":"string"}],"stateMutability":"view"},{"type":"function","name":"totalSupply","inputs":[],"outputs":[{"name":"","type":"uint256","internalType":"uint256"}],"stateMutability":"view"},{"type":"function","name":"transfer","inputs":[{"name":"_to","type":"address","internalType":"address"},{"name":"_value","type":"uint256","internalType":"uint256"}],"outputs":[{"name":"success","type":"bool","internalType":"bool"}],"stateMutability":"nonpayable"},{"type":"function","name":"transferFrom","inputs":[{"name":"_from","type":"address","internalType":"address"},{"name":"_to","type":"address","internalType":"address"},{"name":"_value","type":"uint256","internalType":"uint256"}],"outputs":[{"name":"success","type":"bool","internalType":"bool"}],"stateMutability":"nonpayable"},{"type":"event","name":"Approval","inputs":[{"name":"_owner","type":"address","indexed":true,"internalType":"address"},{"name":"_spender","type":"address","indexed":true,"internalType":"address"},{"name":"_value","type":"uint256","indexed":false,"internalType":"uint256"}],"anonymous":false},{"type":"event","name":"Transfer","inputs":[{"name":"_from","type":"address","indexed":true,"internalType":"address"},{"name":"_to","type":"address","indexed":true,"internalType":"address"},{"name":"_value","type":"uint256","indexed":false,"internalType":"uint256"}],"anonymous":false},{"type":"error","name":"NotDiamondOwner","inputs":[]}],"bytecode":{"object":"0x608060405234801561001057600080fd5b506107ff806100206000396000f3fe608060405234801561001057600080fd5b506004361061009e5760003560e01c806370a082311161006657806370a082311461011e578063755edd171461014757806395d89b411461015c578063a9059cbb14610164578063dd62ed3e1461017757600080fd5b806306fdde03146100a3578063095ea7b3146100c157806318160ddd146100e457806323b872dd146100f6578063313ce56714610109575b600080fd5b6100ab6101b0565b6040516100b89190610627565b60405180910390f35b6100d46100cf366004610692565b610244565b60405190151581526020016100b8565b6002545b6040519081526020016100b8565b6100d46101043660046106bc565b6102b0565b60035460405160ff90911681526020016100b8565b6100e861012c3660046106f8565b6001600160a01b031660009081526004602052604090205490565b61015a6101553660046106f8565b6103f8565b005b6100ab6104a7565b6100d4610172366004610692565b6104b9565b6100e861018536600461071a565b6001600160a01b03918216600090815260056020908152604080832093909416825291909152205490565b60606000800180546101c19061074d565b80601f01602080910402602001604051908101604052809291908181526020018280546101ed9061074d565b801561023a5780601f1061020f5761010080835404028352916020019161023a565b820191906000526020600020905b81548152906001019060200180831161021d57829003601f168201915b5050505050905090565b3360008181526005602090815260408083206001600160a01b038716808552925280832085905551919290917f8c5be1e5ebec7d5bd14f71427d1e84f3dd0314c0f7b2291e5b200ac8c7c3b9259061029f9086815260200190565b60405180910390a350600192915050565b6001600160a01b03831660008181526005602090815260408083203380855292528220549192148061030557506001600160a01b03851660009081526005602090815260408083203384529091529020548311155b1561039357610314838261079d565b6001600160a01b03861660009081526005602090815260408083203384529091529020556103438585856104cf565b336001600160a01b0386167f8c5be1e5ebec7d5bd14f71427d1e84f3dd0314c0f7b2291e5b200ac8c7c3b925610379868561079d565b60405190815260200160405180910390a3600191506103f0565b60405162461bcd60e51b815260206004820152602760248201527f45524332303a204e6f7420656e6f75676820616c6c6f77616e636520746f20746044820152663930b739b332b960c91b60648201526084015b60405180910390fd5b509392505050565b6104006105d8565b6001600160a01b038116600090815260046020526040812080546a52b7d2dcc80cd2e4000000928392916104359084906107b6565b9091555050600280546bffffffffffffffffffffffff8316919060009061045d9084906107b6565b90915550506040518181526001600160a01b038316906000907fddf252ad1be2c89b69c2b068fc378daa952ba7f163c4a11628f55a4df523b3ef9060200160405180910390a35050565b6060600060010180546101c19061074d565b60006104c63384846104cf565b50600192915050565b336000908152600460205260408120548281101561053b5760405162461bcd60e51b8152602060048201526024808201527f45524332303a204e6f7420656e6f75676820746f6b656e7320746f207472616e60448201526339b332b960e11b60648201526084016103e7565b610545838261079d565b6001600160a01b038087166000908152600485016020526040808220939093559086168152908120805485929061057d9084906107b6565b92505081905550836001600160a01b0316856001600160a01b03167fddf252ad1be2c89b69c2b068fc378daa952ba7f163c4a11628f55a4df523b3ef856040516105c991815260200190565b60405180910390a35050505050565b7fc8fcad8db84d3cc18b4c41d551ea0ee66dd599cde068d998e57d5e09332c131c600401546001600160a01b0316331461062557604051630305808160e41b815260040160405180910390fd5b565b60006020808352835180602085015260005b8181101561065557858101830151858201604001528201610639565b506000604082860101526040601f19601f8301168501019250505092915050565b80356001600160a01b038116811461068d57600080fd5b919050565b600080604083850312156106a557600080fd5b6106ae83610676565b946020939093013593505050565b6000806000606084860312156106d157600080fd5b6106da84610676565b92506106e860208501610676565b9150604084013590509250925092565b60006020828403121561070a57600080fd5b61071382610676565b9392505050565b6000806040838503121561072d57600080fd5b61073683610676565b915061074460208401610676565b90509250929050565b600181811c9082168061076157607f821691505b60208210810361078157634e487b7160e01b600052602260045260246000fd5b50919050565b634e487b7160e01b600052601160045260246000fd5b818103818111156107b0576107b0610787565b92915050565b808201808211156107b0576107b061078756fea2646970667358221220516bcf11940b9b61f707783cb3782f52ea3b5d1f3e63208944d05a1a97019a2f64736f6c63430008170033","linkReferences":{}},"methodIdentifiers":{"allowance(address,address)":"dd62ed3e","approve(address,uint256)":"095ea7b3","balanceOf(address)":"70a08231","decimals()":"313ce567","mintTo(address)":"755edd17","name()":"06fdde03","symbol()":"95d89b41","totalSupply()":"18160ddd","transfer(address,uint256)":"a9059cbb","transferFrom(address,address,uint256)":"23b872dd"},"id":0}